---
author: []
related: []
publisher:
  url: 'http://bitcoin.stackexchange.com'
  name: Stackexchange
  favicon: 'http://cdn.sstatic.net/Sites/bitcoin/img/favicon.ico?v=0910168c5c65'
  domain: bitcoin.stackexchange.com
keywords:
  - hex
  - asm
  - vout
  - txid
  - scriptsig
  - op_checksig
  - 55b27521027690887ac2455b6b19c5f4268a8a9c09228351368b9a7643ad791282c3148759ac
  - scriptpubkey
  - op_checksequenceverify
  - 0200000003530699e6ac0766846d1ce5b2b76014b23c3dbb67eedc69523bb11205435236ea0000000070483045022100d48af25c0e1816dd0007bdb0907ae2c4cf96602fb41a089a975eba017f9295af022000af5806f68ac0ba6ac2ada355e8f6050ccfb4d7020ff7d22788be10a07d51a9012655b27521027690887ac2455b6b19c5f4268a8a9c09228351368b9a7643ad791282c3148759ac05000000004a8cd4b96db4a786d560e47a8864a580448de655f716a9ddcf9f25b945a7ff00000000704830450221009914d50bfcc49b1f539824c04f8bc22520906dd24be8cbf5d3c9eafd78e8b1400220305d70a8888e1b8f7bbbaef0e1b3d8d1b9509561f4fff53b194315989122ffb1012655b27521027690887ac2455b6b19c5f4268a8a9c09228351368b9a7643ad791282c3148759ac0500000007921ebd8395a377ce80f9bf08295bc7603b9014357fce90508ffb692dbd474d00000000704830450221008fab401cba85dcc1aac10d9949ca066e8c2cd86ca153a1e0059d839372bf8f12022066c97d30d95286185497d2f9622642ef7d9e511e8c4f2686c9d12504273ac80d012655b27521027690887ac2455b6b19c5f4268a8a9c09228351368b9a7643ad791282c3148759ac050000000336150000000000001976a9140d98bebd47d04361d889e11a977a9ab61665d59188ac00000000000000001e6a1c0131b3774cfeb0198684fce15e0fdf7709e830c9387a1ac6e99b6647c67401000000000017a9149c202ce4f6cafc3420271e79be29911288c513268700000000
description: 'When I try to spend an utxo sent to a pay to script hash, with the script 5 OP_CHECKSEQUENCEVERIFY OP_DROP OP_PUBKEY OP_CHECKSIG I get the following error. Any help would be greatly appreciated. $ ...'
inLanguage: en
app_links:
  - url: 'se-zaphod://bitcoin.stackexchange.com/questions/43800/error-when-trying-to-use-op-checksequenceverify-from-bip112-on-testnet'
    namespace: twitter
    type: ipad
    name: Stack Exchange iOS
    id: '871299723'
  - url: 'se-zaphod://bitcoin.stackexchange.com/questions/43800/error-when-trying-to-use-op-checksequenceverify-from-bip112-on-testnet'
    namespace: twitter
    type: iphone
    name: Stack Exchange iOS
    id: '871299723'
  - url: 'http://bitcoin.stackexchange.com/questions/43800/error-when-trying-to-use-op-checksequenceverify-from-bip112-on-testnet'
    namespace: twitter
    type: googleplay
    name: Stack Exchange Android
    id: com.stackexchange.marvin
isBasedOnUrl: 'http://bitcoin.stackexchange.com/questions/43800/error-when-trying-to-use-op-checksequenceverify-from-bip112-on-testnet'
title: Error when trying to use OP_CHECKSEQUENCEVERIFY from bip112 on testnet
datePublished: '2016-04-22T21:08:40.249Z'
dateModified: '2016-04-22T19:34:55.290Z'
starred: false
sourcePath: _posts/2016-04-22-error-when-trying-to-use-op_checksequenceverify-from-bip112.md
published: true
inFeed: true
hasPage: false
inNav: false
_context: 'http://schema.org'
_type: MediaObject

---
<article style=""><h1>Error when trying to use OP_CHECKSEQUENCEVERIFY from bip112 on testnet</h1><p>When I try to spend an utxo sent to a pay to script hash, with the script 5 OP_CHECKSEQUENCEVERIFY OP_DROP OP_PUBKEY OP_CHECKSIG I get the following error. Any help would be greatly appreciated. $ ...</p><img src="http://cdn.sstatic.net/Sites/bitcoin/img/apple-touch-icon.png?v=a43e5a337e6b&amp;a" /></article>